:020000040800F2
:10000000080D0020A101000845390008BF30000894
:1000100041390008550B0008754200080000000037
:10002000000000000000000000000000C1390008CE
:10003000730C000800000000A1390008C339000853
:10004000BB010008BB010008BB010008BB010008A0
:10005000BB010008BB010008BB010008BB01000890
:10006000BB010008BB010008BB010008BB01000880
:10007000BB010008BB010008BB010008BB01000870
:10008000BB010008BB010008BB010008BB01000860
:10009000BB010008BB010008BB010008BB01000850
:1000A000BB010008BB010008BB010008BB01000840
:1000B000953A0008BB010008BB010008BB0100081D
:1000C000BB010008BB010008BB010008BB01000820
:1000D000BB0100085542000865420008BB0100084A
:1000E000BB010008BB010008BB010008BB01000800
:1000F000BB010008BB010008BB010008BB010008F0
:10010000BB010008BB010008A93A0008BB010008B8
:10011000BB010008BB010008BB010008BB010008CF
:10012000590B0008BB010008BB010008BB01000817
:10013000BB010008BB010008BB010008BB010008AF
:10014000BB010008BB010008BB010008BB0100089F
:10015000BB010008BB010008BB010008BB0100088F
:10016000BB010008BB010008BB010008BB0100087F
:10017000BB010008BB010008BB0100080000000033
:10018000BB010008BB010008DFF810D000F040FA06
:10019000004800478D4F0008AFF30080080D002095
:1001A0000648804706480047FEE7FEE7FEE7FEE711
:1001B000FEE7FEE7FEE7FEE7FEE7FEE7813A00081E
:1001C000890100082DE9F05F0546002092469B4614
:1001D00088460646814640241BE02846414647465D
:1001E000224600F096F953465A46C01A914110D360
:1001F00011461846224600F07DF92D1A67EB0108DA
:100200004F4622460120002100F074F917EB000947
:100210004E41201EA4F10104DFDC484631462A4647
:100220004346BDE8F09FD2B201E000F8012B491E21
:10023000FBD270470022F6E710B513460A46044683
:100240001946FFF7F0FF204610BD2DE9FE4F80460E
:1002500081EA0300C00F0C46009021F0004123F01A
:100260000045B8EB0200A94105D240462146904620
:100270001C460B46024623F00040104347D0270D92
:10028000C7F30A00C3F30A510290401A01904028B4
:100290006BDAC3F3130040F4801B0098924620B140
:1002A0000023D2EB030A63EB0B0B01985946C0F114
:1002B0004002504600F01EF906460D46504659468B
:1002C000019A00F036F910EB08006141002487EA3A
:1002D000115284EAE7731A4340D0009A62B3019A3C
:1002E000012A4FEA075215DC001B61EB02014FF0B7
:1002F000004202EA0752CDE90042001C41F580119C
:1003000032462B4600F036F903B0BDE8F08F404688
:100310002146F9E7001B61EB0201001C41F5801347
:1003200000185B412018A2F5001747EB030140EAD3
:10033000D570B6196D4111E06D084FEA360645EAF1
:10034000C0754FEA0752001B61EB0201001C41F52A
:10035000801149084FEA30000019514132462B46BE
:1003600003B0BDE8F04F00F0F6B80098012240005D
:100370000023D0EB020263EBE073009821464FEAC2
:10038000E074B8EB000061EB0401E9E783F000439F
:100390005BE781F0004158E72DE9FE4F81EA030455
:1003A00004F0004421F0004100944FF0000B23F0D2
:1003B000004350EA01045ED052EA03045BD0C3F369
:1003C0000A54C1F30A552C44A4F2F3340194A0FB5F
:1003D0000254C1F3130141F48011C3F3130343F436
:1003E000801301FB024400FB034E840A970A44EA8F
:1003F000815447EA8357A4FB076802958D0A05FBE1
:1004000007854FEA932C04FB0C542705029D4FEA05
:10041000065847EA1637B5EB08056EEB070C870E52
:10042000920E47EA811742EA8312A7FB0201B6EB5C
:100430000B0164EB00042B0D43EA0C335E1844EB14
:100440001C50DA465146E7FB0201C5F313044FEA9C
:100450000B3343EA14534FEA0432019C43EA060388
:10046000A4F10C040294009CCDE900B400F082F8E1
:1004700003B0BDE8F08F00200146F9E70EB540F269
:10048000334102910021CDE900110A460B4600F0EC
:1004900071F803B000BDC1F30A5210B5C1F31301E6
:1004A00040F2FF3341F480119A4201DA002010BD7E
:1004B00040F233439A42A2F2334203DC524200F04C
:1004C00028F810BD904010BD30B50B460146002005
:1004D0002022012409E021FA02F59D4205D303FA06
:1004E00002F5491B04FA02F52844151EA2F1010287
:1004F000F1DC30BD202A04DB203A00FA02F10020B2
:1005000070479140C2F1200320FA03F31943904051
:100510007047202A04DB203A21FA02F000217047BC
:1005200021FA02F3D040C2F120029140084319465B
:100530007047202A06DBCB17203A41FA02F043EA43
:10054000E07306E041FA02F3D040C2F1200291408C
:1005500008431946704710B5141E73F1000408DAF9
:10056000401C41F1000192185B411A4301D120F077
:10057000010010BD2DE9F04D92469B4611B1B1FA34
:1005800081F202E0B0FA80F220329046FFF7B2FF2B
:1005900004460F4640EA0A0041EA0B0153465A4618
:1005A000084313D0114653EA010019D0C8F14002A4
:1005B0005046FFF7AEFF05460E46504659464246A6
:1005C000FFF798FF084305D0012004E02046394694
:1005D000BDE8F08D0020054346EAE0762C43374322
:1005E0000A986305E40AA0EB08000022FD0A44EA29
:1005F00047540A3002D500200146E9E701051019E9
:100600006941DDE9084500196941BDE8F04DA2E7FF
:10061000064C074D06E0E06840F0010394E807004F
:1006200098471034AC42F6D3FFF7B2FDB45A040831
:10063000D45A040870B58C1810F8015B15F0070344
:1006400001D110F8013B2A1106D110F8012B03E06B
:1006500010F8016B01F8016B5B1EF9D12B0705D473
:100660000023521E0DD401F8013BFAE710F8013BBC
:10067000CB1A921C03E013F8015B01F8015B521ED8
:10068000F9D5A142D8D3002070BD70B50546AC6B3A
:10069000206C00F0500050BB206C40F400702064CF
:1006A0002068806800F04050E8B9207ED8B9206802
:1006B000C06A00F4700020B12068806800F4806097
:1006C00088B92068406820F0200021684860206CCC
:1006D00020F480702064206C00F4805018B9206CE5
:1006E00040F001002064204600F0A2FB0BE0206CEB
:1006F00000F0100018B1204600F09CFB03E0A06B56
:10070000C16C2846884770BD70B50546AC6B40206B
:100710002064606C40F004006064204600F08AFBB6
:1007200070BD70B50446A56B284600F082FB70BD15
:1007300055494A6822F440324A604A6843681A437D
:100740004A600268526822F4807203685A60026844
:100750005368026943EA022203685A6002685268D9
:1007600022F0407203685A600268526883681A4334
:1007700003685A600268926822F4006203689A6013
:1007800002689268C3681A4303689A603F4B826AA2
:100790009A4218D00268926822F0706203689A60E8
:1007A00002689268836A1A4303689A6002689268D2
:1007B00022F0405203689A6002689268C36A1A4342
:1007C00003689A600BE00268926822F07062036826
:1007D0009A600268926822F0405203689A60026848
:1007E000926822F0020203689A6002689368027EAF
:1007F00043EA420203689A602022125CA2B10268B6
:10080000526842F4006203685A600268526822F437
:10081000604203685A6002685368426A521E43EAA3
:10082000423203685A6005E00268526822F40062AE
:1008300003685A600268D26A22F470020368DA62BE
:100840000268D36A828B521E43EA02520368DA625C
:100850000268926822F4007203689A6002689368E2
:1008600090F8302043EA422203689A600268926856
:1008700022F4806203689A6002689368426943EADE
:10088000822203689A607047002301400100000F34
:100890002DE9F041012400260025012712E1002066
:1008A00002F092FC06460EB134463746012F26D19F
:1008B00004F040F885A20121002004F023F987A26A
:1008C0000121022004F01EF985A20121042004F078
:1008D00019F984A20121062004F014F982A2422110
:1008E000022004F00FF981A24221042004F00AF949
:1008F0007FA24221062004F005F900273CE0022FE8
:1009000026D104F017F87BA20121002004F0FAF8A8
:100910007CA20121022004F0F5F87BA20121042031
:1009200004F0F0F879A20121062004F0EBF878A297
:100930004221022004F0E6F877A24221042004F0CC
:10094000E1F877A24221062004F0DCF8002713E04A
:10095000032F11D103F0EEFF73A20121002004F058
:10096000D1F876A20121022004F0CCF875A2012171
:10097000042004F0C7F80027681CC5B2642D00DB12
:100980000025052095FBF0F100FB115098B9032CD0
:1009900011D1012004F026F880464246422102206F
:1009A00004F0FEF8022004F01DF880464246422181
:1009B000042004F0F5F8002D7ED1012C3CD101205B
:1009C00003F040FE0FFA80F842461A21022004F09C
:1009D000FDF8022003F036FE0FFA80F842461A2195
:1009E000042004F0F3F8032003F02CFE0FFA80F843
:1009F00042461A21062004F0E9F8042003F022FE02
:100A00000FFA80F842466021022004F0DFF805204A
:100A100003F018FE0FFA80F842466021042004F02B
:100A2000D5F8062003F00EFE0FFA80F8424660214A
:100A3000062004F0CBF842E0022C40D1072003F05E
:100A400001FE0FFA80F842461A21022004F0BEF897
:100A5000082003F0F7FD0FFA80F842461A2104201F
:100A600004F0B4F8092003F0EDFD0FFA80F84246D7
:100A70001A21062004F0AAF80A2003F0E3FD0FFA79
:100A800080F842466021022004F0A0F80B2003F019
:100A9000D9FD0FFA80F842466021042004F096F850
:100AA0000C2003F0CFFD0FFA80F8424660210620AB
:100AB00004F08CF803E0FFE7042C00D103E00520EC
:100AC00003F08AFFEBE600BFBDE8F081202D414432
:100AD000202041312D41362D2000000041313D00C4
:100AE00041323D0041333D0041343D0041353D0040
:100AF00041363D00202D4144202041372D413132E7
:100B00002D20000041373D0041383D0041393D0076
:100B10004131303D000000004131313D0000000016
:100B20004131323D00000000202D50686F746F6528
:100B30006C6563747269632D20000000443128479E
:100B400031293D004432284732293D0010B503F0D9
:100B5000F1FD10BD00BFFEE710B5024800F080FBBC
:100B600010BD00008C0600200146087810381823BC
:100B7000B0FBF3F20848805CC865032A05D9086811
:100B80006FF30900001D886503E008686FF3090032
:100B90008865886D70470000945A0408014600205B
:100BA0008A6A8B69CBB932B1012A0DD0022A03D0EF
:100BB000032A10D10EE000BFCB6A03F08073B3F1BB
:100BC000807F00D1012007E0CB6AB3F1C07F00D164
:100BD000012001E000E000BF34E08B69B3F5005F65
:100BE0001AD132B1012A07D0022A03D0032A11D127
:100BF0000AE000BF01200EE0CB6A03F08073B3F17E
:100C0000807F00D1012006E0CB6AB3F1C07F00D124
:100C1000012000E000BF15E032B1012A05D0022A10
:100C200004D0032A0CD103E000BF00BF012008E07C
:100C3000CB6A03F08073B3F1807F00D1012000E024
:100C400000BF00BF704730B50468246824F48024D6
:100C500005682C60046863608468402C04D10468D3
:100C6000A2600468E16003E00468A1600468E260D7
:100C700030BD704772B600BFFEE7000030B50446D5
:100C80000D4606480460064805602146022004F02F
:100C900085FA2946032004F081FA30BD380000208F
:100CA0003C00002038B502460020009000BF92F8BA
:100CB0003C00012801D1022038BD012082F83C000F
:100CC00000BF0868092816D91068C0680C780A3C6B
:100CD00004EB44050724AC40A0431468E0600C78A2
:100CE0000A3C04EB44048868A0401468E46820438C
:100CF0001468E06013E0106800690C7804EB4405A8
:100D00000724AC40A043146820610C7804EB440431
:100D10008868A040146824692043146820614868EA
:100D2000072817D21068406B0C79641E04EB840509
:100D30001F24AC40A04314686063088880B20C791B
:100D4000641E04EB8404A0401468646B20431468A0
:100D5000606331E048680D2817D21068006B0C7989
:100D6000E41F04EB84051F24AC40A04314682063F7
:100D7000088880B20C79E41F04EB8404A040146856
:100D8000246B20431468206316E01068C06A0C7955
:100D90000D3C04EB84051F24AC40A0431468E062C2
:100DA000088880B20C790D3C04EB8404A0401468E0
:100DB000E46A20431468E062194B1A4C1068A042A0
:100DC00006D10868122803D1586840F480005860A2
:100DD000144C1068A0421CD10868102802D0086882
:100DE000112816D1586840F400005860086810288F
:100DF0000FD10D4800680D4CB0FBF4F000EB800003
:100E00004000009002E00098401E009000980028EA
:100E1000F9D100BF002082F83C0000BF00BF4BE7C3
:100E200000230140002001404006002040420F0006
:100E3000704770477047000070B5044600250CB934
:100E4000012070BD1549A06A884200D000BF206C07
:100E500030B9204600F024F80020606484F83C009B
:100E6000206C00F0100088B9206C20F4885040F00D
:100E7000020020642046FFF75BFC00206064206CC9
:100E800020F0020040F00100206400E0012500BFD6
:100E9000002084F83C0000BF2846D2E70100000F84
:100EA00010B586B00446142101A8FFF7C3F94149E3
:100EB000206888427BD100BF002000903E48006837
:100EC00040F480703C4908600846006800F4807077
:100ED000009000BF00BF00BF0020009036481438CB
:100EE000006840F00400344914390860084600687E
:100EF00000F00400009000BF00BF00BF0020009081
:100F00000846006840F0010008600846006800F0EC
:100F10000100009000BF00BF00BF00200090084605
:100F2000006840F0020008600846006800F0020017
:100F3000009000BF00BF3F200190032002900020DE
:100F4000039001A91D4800F07FFBFF2001900320C2
:100F500002900020039001A9194800F075FB0320BE
:100F6000019002900020039001A9164800F06CFB4C
:100F70001548164908600020486000211348816028
:100F8000C1604FF480610161490041618900816164
:100F90004911C16100210162416200F081FA08B18A
:100FA000FFF768FE00BF0948A063846300BF06B076
:100FB00010BD0000002001404438024000080240FB
:100FC0000000024000040240106402408C06002031
:100FD0002DE9F84304460D46164600200090804651
:100FE00000BF94F83C00012802D10220BDE8F8833C
:100FF000012084F83C0000BF2068806800F00100F8
:10100000A0B92068806840F00100216888605648D7
:1010100000685649B0FBF1F000EB4000009002E0A0
:101020000098401E009000980028F9D12068806840
:1010300000F48070B0F5807F05D12068806820F4CE
:101040008070216888602068806800F001000028B6
:101050007FD0206C40F20161884340F480702064AE
:101060002068406800F4806028B1206C20F40050B3
:1010700040F480502064206C00F48050B0F5805F14
:1010800004D1606C20F00600606401E00020606420
:1010900000BF002084F83C0000BF354F3548A16BED
:1010A000C8633548A16B08643448A16BC8646FF00D
:1010B0002200216808602068406840F08060216854
:1010C00048602068806840F48070216888602268E9
:1010D00002F14C0133462A46A06B00F057FA8046D5
:1010E000786800F01F0018BB25492068884213D09B
:1010F00024492068884204D1381D006800F01F0090
:1011000050B12149206888422BD11948001D006840
:1011100000F01F00102824D22068806800F04050A2
:10112000F8B92068806840F080402168886018E045
:1011300013492068884214D12068806800F040502C
:1011400078B92068806840F080402168886008E0B5
:10115000FFE7206C40F010002064606C40F001005C
:101160006064404642E700004006002040420F0015
:10117000002301408B060008230700080907000828
:1011800000200140002101400022014070B50446CA
:10119000A56D00F061FB064694F83500022808D0E2
:1011A0008020606500BF002084F8340000BF01206B
:1011B00070BD2068006820F0160021680860206873
:1011C000406920F0800021684861206C08B9A06C5B
:1011D00028B12068006820F00800216808602068B5
:1011E000006820F001002168086010E000F034FB86
:1011F000801B05280BD920206065032084F835006A
:1012000000BF002084F8340000BF0320D0E720682E
:10121000006800F001000028E8D194F85C103F203D
:101220008840A860012084F8350000BF002084F8C1
:10123000340000BF00BFBBE7014691F8350002282B
:1012400003D08020486501207047052081F83500D3
:101250000868006820F001000A6810600020F3E7C9
:10126000F8B50446002000908C4800684FF41651F1
:10127000B0FBF1F7A56D2E6894F85C10082088404B
:10128000304098B12068006800F0040070B1206818
:10129000006820F004002168086094F85C100820C1
:1012A0008840A860606D40F00100606594F85C10B3
:1012B00001208840304068B12068406900F080001B
:1012C00040B194F85C1001208840A860606D40F047
:1012D0000200606594F85C1004208840304068B1DA
:1012E0002068006800F0020040B194F85C1004200F
:1012F0008840A860606D40F00400606594F85C1060
:1013000010208840304078B32068006800F0080062
:1013100050B394F85C1010208840A86020680068E2
:1013200000F4802080B12068006800F4002028B913
:10133000206CC8B12046216C884715E0A06C98B19C
:101340002046A16C88470FE02068006800F4807098
:1013500028B92068006820F0080021680860206C27
:1013600010B12046216C884794F85C1020208840FA
:101370003040002865D02068006800F01000002888
:101380005FD094F85C1020208840A86094F8350065
:10139000052828D12068006820F016002168086020
:1013A0002068406920F0800021684861206C08B9FD
:1013B000A06C28B12068006820F00800216808604F
:1013C00094F85C103F208840A860012084F8350024
:1013D00000BF002084F8340000BF206D10B120460B
:1013E000216D8847F8BD2068006800F4802080B136
:1013F0002068006800F4002028B9606C10B1204615
:10140000616C88471DE0E06BD8B12046E16B8847EE
:1014100017E02068006800F4807068B920680068F0
:1014200020F0100021680860012084F8350000BF1A
:10143000002084F8340000BFE06B10B12046E16B5F
:101440008847606D38B3606D00F00100F0B1052091
:1014500084F835002068006820F0010021680860E9
:1014600000BF0098401C0090B84200D905E02068F9
:10147000006800F001000028F3D100BF012084F8CB
:10148000350000BF002084F8340000BFE06C10B1CC
:101490002046E16C884700BFA4E70000400600201A
:1014A0002DE9F0410446002500F0D6F9074614B9AD
:1014B0000120BDE8F081606A00B100BF022084F81D
:1014C000350000BF002084F8340000BF20680068A9
:1014D00020F00100216808600AE000F0BDF9C01B9F
:1014E000052805D920206065032084F83500E0E751
:1014F0002068006800F001000028EED1206805682F
:1015000021480540D4E901010843E1680843216905
:10151000084361690843A1690843E1690843216AF6
:1015200008430543606A042803D1D4E90B0108434A
:101530000543206805602068456925F00705606A55
:101540000543606A04280DD1A06A0543E06A48B1EA
:101550002046FFF723FB28B140206065012084F876
:101560003500A6E7206845612046FFF7FDFA0646EC
:1015700094F85C103F208840B06000206065012036
:1015800084F83500002094E73F8010F02DE9F04703
:1015900004460D4616461F464FF00008D4F85890F2
:1015A00000BF94F83400012802D10220BDE8F08782
:1015B000012084F8340000BF94F83500012825D1BB
:1015C000022084F83500002060653B4632462946FB
:1015D0002046FFF738FB94F85C103F208840C9F89C
:1015E00008002068006840F0160021680860206C40
:1015F00028B12068006840F0080021680860206871
:10160000006840F001002168086006E000BF00208B
:1016100084F8340000BF4FF002084046C6E70000DF
:1016200070B5044600F018F906462546681C10B14E
:1016300004480078054400BF00F00EF9801BA84262
:10164000FAD370BD3C060020F8B502460B460025D3
:10165000002400200021D6E0012606FA01F51E68CC
:1016600006EA0504AC4274D11E7906F00306012E89
:1016700004D01E7906F00306022E13D190684F00A5
:101680000326BE40B0434F00DE68BE40304390604A
:10169000506801268E40B0431E79C6F300168E4076
:1016A000304350601E7906F00306032E09D0D0683F
:1016B0004F000326BE40B0434F009E68BE403043FB
:1016C000D0601E7906F00306022E13D1CF0802F176
:1016D000200656F827004E07F70E0F26BE40B043EF
:1016E0004F07FF0E1E69BE403043CF0802F12006AF
:1016F00046F8270010684F000326BE40B0431E790D
:1017000006F003064F00BE40304310605E6806F4EA
:101710004036002E76D000BF002600963C4E36683C
:1017200046F480463A4F3E603E46366806F48046B0
:10173000009600BF00BF374E8F0856F827008E076F
:10174000370F0F26BE40B043334EB24202D10026BF
:1017500024E057E0314EB24201D101261EE0304E66
:10176000B24201D1022619E02E4EB24201D1032627
:1017700014E02D4EB24201D104260FE02B4EB242AE
:1017800001D105260AE02A4EB24201D1062605E023
:10179000284EB24201D1072600E008268F073F0FEE
:1017A000BE4030431B4E8F0846F82700224E30685B
:1017B000A0435E6806F4801606B120431E4E3060DA
:1017C000361D3068A0435E6806F4001606B120435B
:1017D000194E361D3060184E361F3068A0435E68C3
:1017E00006F4003606B12043134E361F3060361F14
:1017F0003068A0435E6806F4803606B120430E4E82
:10180000083E3060491C1029FFF426AFF8BD0000E7
:101810004438024008380140000002400004024001
:1018200000080240000C0240001002400014024078
:1018300000180240001C0240083C014002461369A7
:101840000B400BB1012000E0002070470AB181611C
:1018500001E00B0483617047014800687047000095
:101860003406002003480068034909780844014908
:1018700008607047340600203C06002010B50D4873
:10188000006840F400700B4908600846006840F4A6
:10189000806008600846006840F48070086003209B
:1018A00000F0AAF8002000F007F800F02BF8002064
:1018B00010BD0000003C024070B504460E480078A0
:1018C0004FF47A71B1FBF0F00C490968B1FBF0F507
:1018D000284600F033FC08B1012070BD102C07D25F
:1018E00000222146501E00F049F80548046001E03E
:1018F0000120F2E70020F0E73C060020400600202F
:101900003806002008B500BF00200090104800688D
:1019100040F480400E4908600846006800F48040AA
:10192000009000BF00BF00BF00200090081F0068AB
:1019300040F08050091F08600846006800F08050A1
:10194000009000BF00BF052000F056F808BD000061
:10195000443802400146084600280DDB00BF00BFA6
:1019600000F01F0301229A4043099B0003F1E0238A
:10197000C3F8002100BF00BF00BF70472DE9F05F32
:1019800080460D461646002702F08AFC0746394677
:101990002A46334601F00700C0F1070ABAF1040FE6
:1019A00002D94FF0040A01E0C0F1070AD14600F164
:1019B000040ABAF1070F02D24FF0000A01E0A0F1C9
:1019C000030AD4464FF0010A0AFA09FAAAF1010AF9
:1019D0000AEA020A0AFA0CFA4FF0010B0BFA0CFBA6
:1019E000ABF1010B0BEA030B4AEA0B04214640461C
:1019F00002F05EFCBDE8F09F00BF00F00702064B5E
:101A000019684FF6FF031940044B0B4343EA0221C8
:101A1000014B196000BF70470CED00E00000FA05B3
:101A200070B504460D460CB9012070BD58480068D9
:101A300000F00700A84209D255490D700846006819
:101A400000F00700A84201D00120EEE7207800F066
:101A5000020002281DD1207800F00400042805D1DE
:101A60004C48006840F4E0504A490860207800F093
:101A70000800082805D14748006840F460404549FF
:101A800008604448006820F0F000A168084341491C
:101A90000860207800F00100A8B36068012807D131
:101AA0003C4808380068C0F34040B8B90120BCE7A2
:101AB0006068022802D06068032807D135480838DA
:101AC0000068C0F3406048B90120AEE731480838EB
:101AD0000068C0F3400008B90120A6E72D4800685F
:101AE00020F00300616808432A490860FFF7B4FE4C
:101AF000064609E0FFF7B0FE801B41F288318842BC
:101B000002D9032091E707E02248006800F00C00AA
:101B10006168B0EB810FEDD11D48006800F007004F
:101B2000A84209D91A490D700846006800F007005C
:101B3000A84201D0012078E7207800F004000428B2
:101B400007D11448006820F4E050E16808431149C7
:101B50000860207800F00800082808D10D480068C7
:101B600020F46040216940EAC1000A49086000F0A1
:101B70003FF808490968C1F30311074A515CC8409E
:101B80000649086006480068FFF796FE00204CE70B
:101B9000003C0240083802409C5A040840060020DD
:101BA0003806002001480068704700004006002009
:101BB00000B5FFF7F7FF04490968C1F38221034A22
:101BC000515CC84000BD000008380240AC5A04080F
:101BD00000B5FFF7E7FF04490968C1F34231034A42
:101BE000515CC84000BD000008380240AC5A0408EF
:101BF0002DE9F047002400250026A146254800686D
:101C000000F00C0020B1042805D008283AD105E0E6
:101C1000DFF8849039E0DFF8849036E01D48001F3B
:101C2000006800F03F041B48001F006800F48000BB
:101C300078B11A481749091F0968C1F38811A0FB38
:101C400001700146224600233846FEF7BBFA0546DE
:101C50000EE011480F49091F0968C1F38811A0FB64
:101C600001700146224600233846FEF7ABFA0546CE
:101C70000848001F0068C0F30140401C4600B5FB47
:101C8000F6F902E0DFF8109000BF00BF4846BDE85B
:101C9000F0870000083802400024F40000127A00A7
:101CA000F8B504460CB90120F8BD207800F0010019
:101CB000002874D0F948006800F00C0004280DD00A
:101CC000F648006800F00C00082813D1F348001F04
:101CD000006800F48000B0F5800F0BD1EF480838A1
:101CE0000068C0F34040002859D06068002856D1F1
:101CF0000120D9E700BF6068B0F5803F08D1E74810
:101D00000838006840F48030E449083908601EE073
:101D10006068B0F5A02F0DD1E0480838006840F4A5
:101D20008020DE49083908600846006840F48030A9
:101D300008600CE0D9480838006820F48030D749A2
:101D4000083908600846006820F48020086000BF59
:101D5000606890B1FFF780FD054606E0FFF77CFD67
:101D6000401B642801D903209EE7CC48083800684E
:101D7000C0F340400028F1D011E0FFF76DFD0546AB
:101D800006E0FFF769FD401B642801D903208BE7BB
:101D9000C24808380068C0F340400028F1D12078DC
:101DA00000F0020002285FD1BC48006800F00C007F
:101DB00058B1BA48006800F00C0008281CD1B74898
:101DC000001F006800F48000B0B9B448083800680B
:101DD000C0F3400020B1E068012801D0012063E792
:101DE000AE480838006820F0F800216940EAC100D8
:101DF000AA490839086037E0E06800B30120A84923
:101E00000860FFF729FD054606E0FFF725FD401BAA
:101E1000022801D9032047E7A04808380068C0F32A
:101E200040000028F1D09D480838006820F0F800F4
:101E3000216940EAC10099490839086014E000208E
:101E400097490860FFF708FD054606E0FFF704FD27
:101E5000401B022801D9032026E790480838006873
:101E6000C0F340000028F1D1207800F008000828D5
:101E70002CD16069A8B101208A490860FFF7ECFC09
:101E8000054606E0FFF7E8FC401B022801D90320C5
:101E90000AE782486C300068C0F340000028F1D0A7
:101EA00014E000207F490860FFF7D6FC054606E0F5
:101EB000FFF7D2FC401B022801D90320F4E6774843
:101EC0006C300068C0F340000028F1D1207800F0A9
:101ED0000400042870D1002770483830006800F0F2
:101EE000805090B900BF002000906C4838300068E6
:101EF00040F080506949383108600846006800F0B9
:101F00008050009000BF00BF01276748006800F4C0
:101F10008070B0B96448006840F48070624908601D
:101F2000FFF79AFC054606E0FFF796FC401B0228E7
:101F300001D90320B8E65C48006800F480700028EE
:101F4000F2D000BFA068012808D15448683000686A
:101F500040F001005149683108601DE0A068052883
:101F60000DD14E486830006840F004004B4968319C
:101F700008600846006840F0010008600CE047482F
:101F80006830006820F00100444968310860084664
:101F9000006820F00400086000BFA068A8B1FFF747
:101FA0005BFC054609E0FFF757FC401B41F2883116
:101FB000884202D9032077E626E038486830006876
:101FC000C0F340000028EED013E0FFF745FC0546C3
:101FD00008E0FFF741FC401B41F28831884201D9FB
:101FE000032061E62D4868300068C0F340000028F7
:101FF000EFD1012F07D129483830006820F08050F8
:1020000026493831086000BFA069002845D0234820
:10201000006800F00C0008285DD0A069022845D1B6
:1020200000201F490866FFF717FC054606E0FFF78A
:1020300013FC401B022801D9032035E61748083855
:102040000068C0F340600028F1D1D4E907010843DB
:10205000616A40EA81110122A06AC2EB500041EAA4
:1020600000412C20005D41EA00600C49091F086016
:1020700001200B490866FFF7EFFB054606E0FFF776
:10208000EBFB401B022801D903200DE6034808386A
:102090000068C0F340600028F1D049E008380240F1
:1020A00000004742800E4742007000400020214956
:1020B0000866FFF7D1FB054606E0FFF7CDFB401BA6
:1020C000022801D90320EFE51B480068C0F34060F7
:1020D0000028F2D12CE0A069012800D1E4E51648DF
:1020E000001D0668A069012820D006F48001E0697F
:1020F00081421BD106F03F01206A814216D147F68A
:10210000C0703040616AB0EB811F0FD106F44031DE
:102110000122A06AC2EB5000B1EB004F06D106F0DD
:1021200070612C20005DB1EB006F01D00120BBE598
:102130000020B9E5000047420038024070B504466F
:102140002546681EB0F1807F01D301200FE0681E94
:102150004FF0E02148610F214FF0FF3002F0A8F866
:1021600000204FF0E021886107200861002070BD49
:102170007047704730B502460B4600BF92F83C00EE
:10218000012801D1022030BD012082F83C0000BFAF
:10219000022082F83D00106844681068816824F0CD
:1021A00070041868044310684460184D1068A84211
:1021B0001BD01068B0F1804F17D0154D1068A842A1
:1021C00013D0144D1068A8420FD0134D1068A842C8
:1021D0000BD0124D1068A84207D0114D1068A842CC
:1021E00003D0104D1068A84205D121F08001586835
:1021F000014310688160012082F83D0000BF00208B
:1022000082F83C0000BF00BFBDE7000000000140B5
:102210000004004000080040000C004000040140A1
:10222000004001400018004010B504460CB90120E0
:1022300010BD94F83D0028B9002084F83C002046E9
:1022400000F026F8022084F83D00211D206801F0EE
:1022500035FC012084F8460000BF84F83E000121CF
:102260003F200155402001554120015500BF00BFCE
:10227000012084F8420043200155442001554520A7
:10228000015500BF012084F83D000020D0E7000088
:1022900038B504462068B0F1804F18D100BF002047
:1022A00000901948006840F001001749086008468E
:1022B000006800F00100009000BF00BF0322012170
:1022C0001C20FFF75BFB1C20FFF744FB1BE00F49C2
:1022D0002068884217D100BF002000900A4800689B
:1022E00040F00800084908600846006800F008004F
:1022F000009000BF00BF032201213220FFF73EFB08
:102300003220FFF727FB38BD40380240000C004068
:10231000014691F83D00012801D0012070470220BC
:1023200081F83D000868C06840F001000B68D86083
:102330001A4B086898421BD00868B0F1804F17D03C
:10234000174B0868984213D0164B086898420FD074
:10235000154B086898420BD0144B0868984207D078
:10236000134B0868984203D0124B086898420CD16E
:102370000868806800F00702062A0CD00868006828
:1023800040F001000B68186005E00868006840F044
:1023900001000B6818600020C0E700000000014049
:1023A0000004004000080040000C00400004014010
:1023B00000400140001800402DE9F04104460D4660
:1023C000002700BF94F83C00012802D10220BDE89C
:1023D000F081012084F83C0000BF022084F83D0019
:1023E0002068866826F0770626F47F462068866097
:1023F0002868502833D00CDC202850D004DC00287A
:102400004BD0102851D149E0302849D040284CD138
:1024100039E060282DD0702807D0B0F5805F03D058
:10242000B0F5005F41D10DE041E0D5E902136A68E3
:10243000206801F0C4FB2068866846F077062068B3
:10244000866034E0D5E902136A68206801F0B7FBC2
:102450002068806840F480402168886027E0EA684E
:102460006968206801F09CFC5021206801F0B2FBF3
:102470001DE0EA686968206801F0A5FC6021206819
:1024800001F0A8FB13E0EA686968206801F088FCA5
:102490004021206801F09EFB09E000BF00BF00BFA3
:1024A0002968206801F096FB01E0012700BF00BF0A
:1024B000012084F83D0000BF002084F83C0000BFEC
:1024C000384684E7704770B504462068C5682068C0
:1024D000066906F00200022819D105F00200022860
:1024E00015D1401F2168086101202077206880698C
:1024F00000F0030018B12046FFF7E4FF05E0204696
:1025000000F0F0F8204600F0D3F90020207706F024
:102510000400042819D105F00400042815D1C04393
:1025200021680861022020772068806900F44070EB
:1025300018B12046FFF7C6FF05E0204600F0D2F8AC
:10254000204600F0B5F90020207706F008000828A2
:1025500019D105F00800082815D1C0432168086189
:10256000042020772068C06900F0030018B12046DD
:10257000FFF7A8FF05E0204600F0B4F8204600F081
:1025800097F90020207706F01000102819D105F0E7
:102590001000102815D1C043216808610820207759
:1025A0002068C06900F4407018B12046FFF78AFF28
:1025B00005E0204600F096F8204600F079F900206A
:1025C000207706F0010048B105F0010030B16FF04E
:1025D000010021680861204600F0F2F906F0800051
:1025E000802809D105F08000802805D1C0432168EA
:1025F00008612046FFF7BCFD06F04000402809D1E5
:1026000005F04000402805D1C043216808612046FC
:1026100000F02EFA06F02000202809D105F0200055
:10262000202805D1C043216808612046FFF7A1FD9D
:1026300070BD000010B586B00446142101A8FDF756
:10264000F9FD2349206888421ED100BF0020009078
:102650002048006840F004001E49086008460068F1
:1026600000F00400009000BF00BF4FF470700190B4
:10267000022002900020039004900220059001A9FE
:102680001548FEF7E1FF21E01449206888421DD17A
:1026900000BF002000900F48006840F008000D497E
:1026A00008600846006800F00800009000BF00BF06
:1026B0004FF470400190022002900020039004909B
:1026C0000220059001A90648FEF7BEFF06B010BD26
:1026D000000400403038024000080240000800407A
:1026E000000C024070472DE9F04104460D461646A5
:1026F000002700BF94F83C00012802D10220BDE869
:10270000F081012084F83C0000BF36B1042E1BD0BC
:10271000082E31D00C2E5ED145E02946206801F00C
:1027200063FA2068806940F00800216888612068A9
:10273000806920F004002168886120688069296927
:1027400008432168886148E02946206801F084FA3E
:102750002068806940F40060216888612068806991
:1027600020F480602168886120688069296940EAD6
:1027700001202168886130E02946206801F0AAFA2A
:102780002068C06940F008002168C8612068C069FD
:1027900020F004002168C8612068C06929690843E5
:1027A0002168C86119E02946206801F0CFFA206845
:1027B000C06940F400602168C8612068C06920F4E5
:1027C00080602168C8612068C069296940EA0120E9
:1027D0002168C86101E0012700BF00BF00BF0020E1
:1027E00084F83C0000BF384689E710B504460CB9B0
:1027F000012010BD94F83D0028B9002084F83C0069
:10280000204600F025F8022084F83D00211D2068B4
:1028100001F054F9012084F8460000BF84F83E001E
:1028200001213F200155402001554120015500BFA5
:1028300000BF012084F84200432001554420015587
:102840004520015500BF012084F83D000020D0E75D
:1028500008B5144A016891420FD100BF00210091D0
:102860001149096841F002010F4A116011460968D7
:1028700001F00201009100BF13E00C4A016891428F
:102880000FD100BF002100910749096841F0040100
:10289000054A11601146096801F00401009100BF6A
:1028A00000BF08BD0004004040380240000800405E
:1028B0007047000070B504460D4615B994F83E0007
:1028C0000BE0042D02D13F20005D06E0082D02D16F
:1028D0004020005D01E04120005D012801D0012081
:1028E00070BD1DB9022084F83E000EE0042D03D116
:1028F00002213F20015508E0082D03D1022140208C
:10290000015502E00221412001550122294620689B
:1029100001F044F923492068884203D02249206805
:10292000884201D1012000E0002028B12068406CDD
:1029300040F40040216848641A49206888421BD04E
:102940002068B0F1804F17D018492068884213D012
:102950001749206888420FD01649206888420BD05A
:1029600011492068884207D013492068884203D063
:102970001249206888420CD12068806800F0070660
:10298000062E0CD02068006840F001002168086025
:1029900005E02068006840F0010021680860002020
:1029A0009EE70000000001400004014000040040D8
:1029B00000080040000C00400040014000180040AA
:1029C00010B504462068B0F1804F2AD12048007825
:1029D00001280FD11F480088401C1E490880084666
:1029E0000088C82806DB01F0A5FE00201849087001
:1029F0001849088018480088401C17490880084674
:102A00000088B0F57A7F06DB002008801348008834
:102A1000401C1249088012480068401C1049086098
:102A200014E010492068884210D10F480088401CEB
:102A30000D49088008460088B0F57A7F06DB002043
:102A400008800A480088401C0849088010BD000022
:102A50003000002032000020280000202A00002042
:102A600034000020000C00402C0000202E0000202C
:102A70007047704738B504460A49206888420FD12C
:102A800000BF002000902068006800902068406827
:102A9000009000BF00BF01220349044800F064FA1F
:102AA00038BD0000004400401000002060080020F5
:102AB0002DE9F84F0446206805682068C66820683C
:102AC00047694FF00009CA4605F00F09B9F1000F38
:102AD0000AD105F0200038B106F0200020B12046D0
:102AE00001F0D4F9BDE8F88FB9F1000F7CD007F000
:102AF000010018B906F49070002875D005F00100A7
:102B000030B106F4807018B1606C40F00100606470
:102B100005F0040030B107F0010018B1606C40F01E
:102B20000200606405F0020030B107F0010018B146
:102B3000606C40F00400606405F0080048B106F0E5
:102B4000200010B907F0010018B1606C40F00800D7
:102B50006064606C002846D005F0200028B106F0C3
:102B6000200010B1204601F091F920684069C0F3BF
:102B7000801A606C00F0080010B9BAF1000F2DD077
:102B8000204601F03DF92068406900F040004028EF
:102B900020D100BF00BF2168143151E8001F21F08F
:102BA00040002168143141E80002002AF3D100BF3F
:102BB000E06B50B17F48E16B0865E06BFEF73CFBD2
:102BC00088B1E06B016D88470DE02046FFF752FFAA
:102BD00009E009E02046FFF74DFF04E02046FFF73B
:102BE00049FF002060647DE7206B012878D105F063
:102BF0001000002874D006F010000028FAD000BFA2
:102C000000200090206800680090206840680090D4
:102C100000BF00BF2068406900F04000402870D12C
:102C2000E06B006840681FFA80F8B8F1000F58D0D8
:102C3000A08D404555DDA4F82E80E06BC069B0F54D
:102C4000807F43D000BF00BF21680C3151E8001FD6
:102C500021F4807021680C3141E80002002AF3D190
:102C600000BF00BF00BF2168143151E8001F21F0F0
:102C700001002168143141E80002002AF3D100BFAD
:102C800000BF00BF2168143151E8001F21F040004F
:102C90002168143141E80002002AF3D100BF20204E
:102CA00084F842000020206300BF00BF21680C317F
:102CB00051E8001F21F0100021680C3141E80002AA
:102CC000002AF3D100BFE06BFEF760FA02206063D8
:102CD000A08DE28D801A81B22046FFF7CAFE0EE079
:102CE00052E0A08D40450AD1E06BC069B0F5807F0D
:102CF00005D102206063A18D2046FFF7BAFEF1E600
:102D0000FFE7A08DE18D401A1FFA80F8E08DD0B367
:102D1000B8F1000F37D000BF00BF21680C3151E877
:102D2000001F21F4907021680C3141E80002002A54
:102D3000F3D100BF00BF00BF2168143151E8001F6C
:102D400021F001002168143141E80002002AF3D18A
:102D500000BF202084F842000020206300BF00BF95
:102D600021680C3151E8001F21F0100021680C315E
:102D700041E80002002AF3D100BF0220606341460F
:102D80002046FFF776FEADE605F0800030B106F094
:102D9000800018B1204601F02DFAA3E605F04000AE
:102DA00030B106F0400018B1204601F05FF899E616
:102DB00000BF97E6EF3D000810B504460CB90120AE
:102DC00010BDA06900B100E000BF94F8410028B92F
:102DD000002084F84000204600F02AF8242084F8DF
:102DE00041002068C06820F400502168C860204677
:102DF00001F0CAF82068006920F490402168086159
:102E00002068406920F02A00216848612068C06875
:102E100040F400502168C86000206064202084F8DD
:102E2000410084F842000020606300BFC8E7000052
:102E300010B586B00446142101A8FDF7FBF94549F9
:102E40002068884246D100BF0020009042480068B8
:102E500040F01000404908600846006800F010008B
:102E6000009000BF00BF00BF002000903A48143817
:102E7000006840F0020038491439086008460068CC
:102E800000F00200009000BF00BF4020019002202F
:102E9000029001200390022004900720059001A9D0
:102EA0002E48FEF7D1FB80200190022002900020E6
:102EB0000390032004900720059001A92748FEF7FE
:102EC000C3FB012203212520FEF758FD2520FEF734
:102ED00041FD3DE022492068884239D100BF0020F1
:102EE00000901D48001F006840F400301A49091F77
:102EF00008600846006800F40030009000BF00BF82
:102F000000BF0020009014481438006840F008000A
:102F10001149143908600846006800F00800009064
:102F200000BF00BF602001900220029000200390AB
:102F3000032004900720059001A90A48FEF784FBAE
:102F4000022211462620FEF719FD2620FEF702FD7B
:102F500006B010BD00100140443802400004024099
:102F600000440040000C024070B504460D46164671
:102F700094F8420020280BD105B10EB9012070BD94
:102F80000020206332462946204601F013F9F6E777
:102F90000220F4E770B505463B492868884272D1A3
:102FA0003A4804783A480078052861D2DFE800F012
:102FB000030915294000AA2C02D1012034490870C8
:102FC0005AE0552C01D1022004E0AA2C01D10120A5
:102FD00000E000202E4908704EE02E4804700020CA
:102FE0002D4908702D4908702A48007818B12948E1
:102FF0000078082801DD002000E003202449087043
:103000003AE0254801780078401C234A1070244893
:103010004454224800782044204908701046007823
:103020001C490978884202DB04201949087023E012
:103030001A480078A04217D116480078042813DBFC
:1030400017480078174908701548407816490870E5
:1030500013488078154908701148C07814490870E1
:10306000FEF7FAFB1349086000200949087003E0E5
:1030700000200749087000BF00BF012203490E4825
:10308000FFF772FF00BF70BD004400401000002039
:103090001100002012000020130000201400002066
:1030A0001500002008000020090000200A00002070
:1030B0000B0000200C00002060080020704700BFBB
:1030C000FEE7000010B54FF4C87001F05FFC00F09F
:1030D0003BFC012208213B48FEF7B8FB142001F01D
:1030E00055FC002208213748FEF7B0FB142001F000
:1030F0004DFC012208213348FEF7A8FB142001F003
:1031000045FC002202212F48FEF7A0FBAE2002F072
:1031100099FA202002F096FA102002F093FAB020DB
:1031200002F090FAC82002F08DFA002002F08AFA2C
:10313000102002F087FA402002F084FA812002F089
:1031400081FAFF2002F07EFAA12002F07BFAA6208D
:1031500002F078FAA82002F075FA3F2002F072FA25
:10316000A42002F06FFAD32002F06CFA002002F0E3
:1031700069FAD52002F066FAF02002F063FAD9204D
:1031800002F060FA222002F05DFADA2002F05AFA28
:10319000122002F057FADB2002F054FA202002F04D
:1031A00051FA8D2002F04EFA142002F04BFAAF20B3
:1031B00002F048FA012202210248FEF747FB01F023
:1031C000B9FB10BD0010024010B5044614B1012037
:1031D0002D4908702C480078002839D040212B4810
:1031E000FEF72CFB80B14FF400512948FEF726FB77
:1031F00050B14FF400712748FEF720FB20B1802129
:103200002548FEF71BFB18BB0A2001F0E5FB002058
:103210001D49087040211D48FEF710FB08B9012028
:1032200010BD4FF400511A48FEF708FB08B9022000
:10323000F6E74FF400711748FEF700FB08B90320CA
:10324000EEE780211448FEF7F9FAD8B90420E7E741
:1032500040210E48FEF7F2FA012813D141030C4831
:10326000FEF7ECFA01280DD141020A48FEF7E6FA12
:10327000012807D180210848FEF7E0FA012801D192
:10328000014908700020CBE7240000200010024014
:103290000008024000040240000C024010B501F09A
:1032A00061FE01F025FD10BD1FB5002000900190CA
:1032B000029003906848694908604FF48030486084
:1032C000002166488160012101610176002180F8BA
:1032D0002010C162624981620021C1601021C16178
:1032E000012180F830104161FDF7A6FD08B1FDF71E
:1032F000C1FC00200090012001900320029069464B
:103300005648FDF7CFFC08B1FDF7B4FC0120009052
:103310000220019069465148FDF7C4FC08B1FDF751
:10332000A9FC022000900320019069464B48FDF75C
:10333000B9FC08B1FDF79EFC032000900420019029
:1033400069464648FDF7AEFC08B1FDF793FC042042
:1033500000900520019069464048FDF7A3FC08B1A4
:10336000FDF788FC052000900620019069463B4847
:10337000FDF798FC08B1FDF77DFC062000900720C2
:10338000019069463548FDF78DFC08B1FDF772FCE8
:10339000072000900820019069463048FDF782FC24
:1033A00008B1FDF767FC08200090092001906946EC
:1033B0002A48FDF777FC08B1FDF75CFC0920009076
:1033C0000A20019069462548FDF76CFC08B1FDF71D
:1033D00051FC0A2000900B20019069461F48FDF720
:1033E00061FC08B1FDF746FC0B2000900C20019019
:1033F00069461A48FDF756FC08B1FDF73BFC0C2066
:1034000000900D20019069461448FDF74BFC08B16F
:10341000FDF730FC0D2000900E20019069460F480A
:10342000FDF740FC08B1FDF725FC0E2000900F20B1
:10343000019069460948FDF735FC08B1FDF71AFC13
:103440000F2000901020019069460448FDF72AFCE7
:1034500008B1FDF70FFC1FBD00200140440600200D
:103460000100000F08B500BF002000900A48006866
:1034700040F48000084908600846006800F48000B5
:10348000009000BF00BF002211463820FEF776FAF8
:103490003820FEF75FFA08BD3038024000B587B02B
:1034A000142102A8FCF7C6FE00BF0020019062486C
:1034B000006840F01000604908600846006800F0AD
:1034C0001000019000BF00BF00BF0020019008461F
:1034D000006840F0040008600846006800F004003E
:1034E000019000BF00BF00BF0020019008460068A7
:1034F00040F0800008600846006800F080000190FD
:1035000000BF00BF00BF002001900846006840F0E7
:10351000010008600846006800F00100019000BF4B
:1035200000BF00BF002001900846006840F0020084
:1035300008600846006800F00200019000BF00BF6C
:1035400000BF002001900846006840F008000860B5
:103550000846006800F00800019000BF00BF00228C
:1035600040F63F013548FEF771F900224FF4006143
:103570003348FEF76BF900224FF480513148FEF7D3
:1035800065F93F20029001200390002004900590EF
:1035900002A92A48FEF758F8402002900020039024
:1035A0000120049002A92548FEF74EF84FF4005080
:1035B0000290002003900120049002A92248FEF707
:1035C00043F84FF400600290012003900490022021
:1035D000059002A91948FEF737F84FF400600290F1
:1035E0000120039004900220059002A91448FEF7E0
:1035F0002BF84FF480500290012003900490022099
:10360000059002A90F48FEF71FF8802002900020C5
:1036100003900120049002A90948FEF715F84FF421
:1036200000700290002003900120049002A9074836
:10363000FEF70AF807B000BD303802400010024023
:10364000000C02400000024000080240000402405A
:1036500000B587B00020039004900590069001907B
:1036600002904FF0804014490860532048600021C8
:103670001148816040F2E731C16000210161816140
:10368000FEF7D2FD08B1FDF7F5FA4FF48050039034
:1036900003A90948FEF790FE08B1FDF7EBFA0020F8
:1036A0000190029001A90448FEF764FD08B1FDF7FE
:1036B000E1FA07B000BD0000EC06002000B589B0BB
:1036C0000020079008901C216846FCF7B3FD2448B1
:1036D000244908600720486000212248816040F2A8
:1036E000FB31C160002101618161FFF77EF808B103
:1036F000FDF7C0FA00200790089007A91948FEF7C7
:1037000039FD08B1FDF7B6FA602000900020019065
:1037100002900490002269461248FEF7E4FF08B1C7
:10372000FDF7A8FA042269460E48FEF7DCFF08B14F
:10373000FDF7A0FA082269460A48FEF7D4FF08B14F
:10374000FDF798FA0C2269460648FEF7CCFF08B14F
:10375000FDF790FA0348FEF76DFF09B000BD0000C9
:10376000000400403407002000B589B00020079015
:1037700008901C216846FCF75DFD24482449086038
:103780000720486000212248816040F2FB31C1607F
:10379000002101618161FFF728F808B1FDF76AFA9D
:1037A00000200790089007A91948FEF7E3FC08B12C
:1037B000FDF760FA602000900020019002900490D4
:1037C000002269461248FEF78EFF08B1FDF752FA53
:1037D000042269460E48FEF786FF08B1FDF74AFA53
:1037E000082269460A48FEF77EFF08B1FDF742FA53
:1037F0000C2269460648FEF776FF08B1FDF73AFA53
:103800000348FEF717FF09B000BD000000080040A4
:103810007C07002000B587B000200390049005903D
:1038200006900190029014481449086053204860A3
:1038300000211248816040F2E731C160002101613E
:103840008161FEF7F1FC08B1FDF714FA4FF48050E6
:10385000039003A90948FEF7AFFD08B1FDF70AFA86
:1038600000200190029001A90448FEF783FC08B1F2
:10387000FDF700FA07B000BD000C0040C4070020AF
:1038800010B50A480A4908600A48486000210848FB
:103890008160C16001610C21416100218161C161D0
:1038A000FFF78AFA08B1FDF7E5F910BD00100140F5
:1038B0001808002040420F0010B50B480B49086063
:1038C0004FF4E1304860002108488160C160016127
:1038D0000C21416100218161C161FFF76DFA08B1DE
:1038E000FDF7C8F910BD000000440040600800204A
:1038F00010B5A82001F058F81049012001F016FF7A
:103900004FF4E13001F006F8FDF720F9FFF7DAFB9C
:1039100000F01CF8532140F2E73000F0C3F801F04A
:1039200053FD532140F2E73000F0C6F801F05CFD92
:10393000FFF7B4FC00F036F810BD000040420F0065
:1039400000BFFEE700BFFEE77047000010B5002192
:103950001148FEF7AFFF04210F48FEF7ABFF082127
:103960000D48FEF7A7FF0C210B48FEF7A3FF00212F
:103970000A48FEF79FFF04210848FEF79BFF082135
:103980000648FEF797FF0C210448FEF793FF01203D
:1039900001F072FA10BD0000340700207C070020FF
:1039A0007047000010B501F037F8102202490348B3
:1039B000FDF70EFB10BD0000A80800204406002003
:1039C000704710B5FDF74EFF10BD000000B593B075
:1039D000302107A8FCF72EFC142102A8FCF72AFCD2
:1039E00000BF002001902448006840F08050224928
:1039F00008600846006800F08050019000BF00BFDA
:103A000000BF002001901D48006840F480401B4921
:103A100008600846006800F48040019000BF00BFC5
:103A2000012007900004089002200D9041050E919E
:103A300008210F914FF4A8711091022111910421D6
:103A4000129107A8FEF72CF908B1FDF713F90F2022
:103A5000029002200390002004904FF4A0500590A3
:103A60004FF480500690052102A8FDF7D9FF08B158
:103A7000FDF700F913B000BD40380240007000406F
:103A80000348006840F47000014908607047000076
:103A900088ED00E010B50248FEF715FD10BD0000EE
:103AA000EC0600207047000010B50248FEF70BFD41
:103AB00010BD0000C40700207047000010B5026868
:103AC0002B4B98420ED0B0F1804F0BD0294B98422F
:103AD00008D0294B984205D0284B984202D0284B59
:103AE000984203D122F070024B681A43204B98424F
:103AF00020D0B0F1804F1DD01E4B98421AD01E4BE3
:103B0000984217D01D4B984214D01D4B984211D0AB
:103B10001C4B98420ED01C4B98420BD01B4B98422A
:103B200008D01B4B984205D01A4B984202D01A4B32
:103B3000984203D122F44072CB681A4322F08003EA
:103B40004C6943EA04028B68C3620B688362084BCA
:103B5000984202D00A4B984201D10B690363036873
:103B600043F00403036001234361026010BD0000C1
:103B7000000001400004004000080040000C00402C
:103B80000004014000400140004401400048014061
:103B900000180040001C00400020004030B501F03B
:103BA0001F05012404FA05F3046A9C430462046AB5
:103BB00001F01F0502FA05F52C43046230BD30B553
:103BC0000C46816821F47F4142EA032525432943BD
:103BD000816030BD0A46816821F0700142F0070320
:103BE000194381607047000030B5026A056A25F00C
:103BF000010505624368846924F0700424F003041D
:103C00000D682C4322F002028D682A43104DA84211
:103C100000D103E00F4DA84206D100BF22F00802F8
:103C2000CD682A4322F00402094DA84202D0094D72
:103C3000A84207D123F4807323F400734D692B430A
:103C40008D692B43436084614D684563026230BDDA
:103C5000000001400004014030B5026A056A25F009
:103C6000100505624368846924F4E04424F4407438
:103C70000D6844EA052422F020028D6842EA05120C
:103C8000124DA84200D103E0114DA84207D100BF58
:103C900022F08002CD6842EA051222F040020B4D6C
:103CA000A84202D00A4DA84209D123F4806323F42C
:103CB00000634D6943EA85038D6943EA85034360E8
:103CC00084614D688563026230BD000000000140E0
:103CD0000004014030B5026A056A25F4807505626A
:103CE0004368C46924F0700424F003040D682C4375
:103CF00022F400728D6842EA0522124DA84200D1DA
:103D000003E0114DA84207D100BF22F40062CD6844
:103D100042EA052222F480620A4DA84202D00A4DEE
:103D2000A84209D123F4805323F400534D6943EA98
:103D300005138D6943EA05134360C4614D68C5638B
:103D4000026230BD000001400004014030B5036A4A
:103D5000056A25F4805505624468C26922F4E04290
:103D600022F440720D6842EA052223F400538D6864
:103D700043EA0533084DA84202D0084DA84204D1B9
:103D800024F480444D6944EA85144460C2614D685E
:103D90000564036230BD00000000014000040140E2
:103DA00030B50B461446026A056A25F00105056226
:103DB000816921F0F00141EA041122F00A021A435C
:103DC0008161026230BD30B50B461446026A056A55
:103DD00025F010050562816921F4704141EA043142
:103DE00022F0A00242EA03128161026230BD70B586
:103DF0000446A56B0020E8852846FEF73BFE70BD13
:103E000000BF00BF02680C3252E8002F22F490710C
:103E100002680C3242E80013002BF3D100BF00BF50
:103E200000BF0268143252E8002F22F0010102683C
:103E3000143242E80013002BF3D100BF016B0129BB
:103E40000ED100BF00BF02680C3252E8002F22F0F2
:103E5000100102680C3242E80013002BF3D100BFBE
:103E6000202180F8421000210163704710B50446FC
:103E70002068C06820F040002168C860202084F8D5
:103E800041002046FFF71AF9002010BDF8B504469E
:103E90000025002694F84200222873D1A068B0F5CE
:103EA000805F0BD1206948B9A66A20684068C0F3DA
:103EB00008003080A06A801CA06214E0A56AA06897
:103EC000B0F5805F03D0A06828B9206918B92068D0
:103ED0004068287004E02068406800F07F00287087
:103EE000A06A401CA062E08D401E80B2E0850028E0
:103EF00046D12068C06820F020002168C860206892
:103F0000C06820F480702168C8602068406920F093
:103F1000010021684861202084F84200002060638D
:103F2000206B012826D10020206300BF00BF21683C
:103F30000C3151E8001F21F0100021680C3141E8DC
:103F40000002002AF3D100BF2068006800F01000D2
:103F500010280AD100BF002000902068006800905F
:103F600020684068009000BF00BFA18D2046FEF78A
:103F700080FD02E02046FFF70DF80020F8BD01E0CB
:103F80000020FBE70220F9E72DE9F84F04462068FE
:103F9000006920F44050E168084321680861216904
:103FA000A068084361690843E169084300902068FC
:103FB000C06849F20C618843009908432168C860D1
:103FC0002068406920F44070A16908432168486175
:103FD00076492068884203D075492068884203D119
:103FE000FDF7F6FD814602E0FDF7E2FD8146E0695E
:103FF000B0F5004F6CD102206168A0FB0150034670
:104000001920A9FB007001462A463846FCF7DAF869
:104010006421B0FBF1F04FEA001A02206168A0FBB6
:1040200001510B461920A9FB00712A463846FCF7BE
:10403000C9F8834602206168A0FB0150034619209D
:10404000A9FB00712A463846FCF7BCF86421B0FB96
:10405000F1F000EBC00101EB0010ABEB800032216E
:1040600001EBC0006421B0FBF1F000F0F8000AEBB6
:10407000400A02206168A0FB015003461920A9FBF9
:10408000007001462A463846FCF79CF88346022019
:104090006168A0FB015003461920A9FB00712A4664
:1040A0003846FCF78FF86421B0FBF1F000EBC0015B
:1040B00001EB0010ABEB8000322101EBC00064216A
:1040C000B0FBF1F000F007005044216888606AE01E
:1040D00004206168A0FB015003461920A9FB007071
:1040E00001462A463846FCF76DF88246042061688E
:1040F000A0FB015003461920A9FB007001462A4687
:104100003846FCF75FF86421B0FBF1F000EBC0012A
:1041100001EB0010AAEB8000322101EB00106421BA
:10412000B0FBF1F000F0F00A04206168A0FB017020
:1041300003461920A9FB00513A462846FCF742F8ED
:104140006421B0FBF1F00AEB001A04206168A0FBC7
:1041500001510B461920A9FB00712A463846FCF78D
:1041600031F8834604206168A0FB01500346192002
:10417000A9FB007001462A463846FCF723F8642163
:10418000B0FBF1F000EBC00101EB0010ABEB8000E5
:10419000322101EB00106421B0FBF1F000F00F00C0
:1041A000504421688860BDE8F88F0000001001408D
:1041B0000014014010B5034699629A85DA85002003
:1041C0005864222083F84200186928B11868C06832
:1041D00040F480701C68E0601868406940F001009D
:1041E0001C6860611868C06840F020001C68E060CE
:1041F000002010BD014691F84100212828D188688F
:10420000B0F5805F0BD1086948B90A6A1088C0F31D
:1042100008000B685860086A801C086205E00B6A99
:10422000581C086218780B685860C88C401E80B211
:10423000C88458B90868C06820F080000B68D8604E
:104240000868C06840F040000B68D86000207047E4
:104250000220FCE710B50248FEF72AFC10BD000062
:104260001808002010B50248FEF722FC10BD00001F
:104270006008002000BFFEE70FB4084B10B504A98A
:1042800002AA039800F038F8044602A9002000F0C2
:10429000D4F9204610BC5DF814FB00003B46000832
:1042A00002480068C0F30220704700000CED00E0F7
:1042B00010B5002804DB0A07130E054A135406E064
:1042C0000A07140E034A00F00F031B1FD45410BD3D
:1042D00000E400E018ED00E002E008C8121F08C189
:1042E000002AFAD170477047002001E001C1121F77
:1042F000002AFBD1704700002DE9FF4F8BB08846A4
:104300000546002606E025280BD0DDE90D12904772
:104310006D1C761C28780028F5D10FB03046BDE81A
:10432000F08F0024A146A2460122AE4900E00443DA
:1043300015F8013F203B02FA03F00842F7D1287834
:104340002A2810D06FF02F022878A0F13001092917
:1043500015D809EB890102EB410144F0020400EB9E
:1043600001096D1CF0E758F8041B5FEA010903D549
:1043700044F40054C9F1000944F002046D1C28788B
:104380002E2817D115F8010F44F004042A280ED066
:104390006FF02F022878A0F1300109290AD80AEB22
:1043A0008A0102EB410100EB010A6D1CF2E758F8AB
:1043B00004AB6D1C28786C280FD006DC4C2817D075
:1043C00068280DD06A2814D104E0742810D07A2807
:1043D0000FD10DE044F400140AE044F4801401E02D
:1043E00044F440146978814202D104F580146D1CB4
:1043F0006D1C2878692865D006DC00288DD06328DC
:1044000027D0642806D15DE06E2808D073282AD012
:10441000752877D0DDE90D129047761CE0E0C4F3F3
:104420000250022809D003280DD0D8F80010042823
:104430000DD00E6008F10408D2E0D8F80010F21791
:10444000C1E90062F6E7D8F800100E80F2E70E70BE
:10445000F0E718F8041B8DF8001000208DF801001B
:10446000EB46012003E058F804BB4FF0FF30610732
:104470004FF0000701D40AE07F1C57450DDA874250
:10448000FADB1BF807100029F6D106E07F1C8742F3
:10449000FCDB1BF807100029F8D1DDE90D23A9EB9F
:1044A00007008146214600F0B1F83044C61904E007
:1044B000DDE90D121BF8010B90477F1EF8D2214653
:1044C000484688E058F8040BC4F302514FF00A0B39
:1044D000032900D100B2042900D140B2002802DA39
:1044E00040422D2102E0210505D52B218DF8241015
:1044F000012104E006E0E10710D02021F6E708AF33
:10450000089113E058F8040BC4F302514FF00A0B62
:10451000032900D180B2042900D1C0B20021EEE706
:104520005946FBF7D1FF303107F8011D0028F7D1BC
:10453000ADEB070000F1200B600702D524F48034B6
:1045400001E04FF0010ADA4502DDAAEB0B0000E0C2
:104550000020824600EB0B0108980144A9EB010002
:104560000A90E00306D4DDE90D2321460A9800F005
:104570004DF806444FF0000908E009A911F80900B8
:10458000DDE90D12904709F10109761C089989456A
:10459000F3DBE0030CD5DDE90D2321460A9800F09A
:1045A00035F8064404E0DDE90D1230209047761C12
:1045B000BAF10001AAF1010AF5DC05E0DDE90D120E
:1045C00017F8010B9047761CBBF10001ABF1010B12
:1045D000F4DC0A982146DDE90D2300F005F80644D5
:1045E0006D1C97E6092801002DE9F04104460025DD
:1045F0001E461746880404D405E039462020B047FB
:104600006D1C641EF9D52846BDE8F0812DE9F04106
:10461000044600251E469046C80301D5302700E019
:104620002027880404D505E041463846B0476D1C74
:10463000641EF9D52846BDE8F0810A68531C0B605A
:104640001070704770B504460025102C29D2DFE8A1
:1046500004F0080A0C0E10121416181A1C1E202240
:1046600024260A251DE00B251BE00C2519E00D254D
:1046700017E0002515E0012513E0022511E00325D0
:104680000FE004250DE005250BE0062509E00725D0
:1046900007E00E2505E00F2503E0082501E00925C8
:1046A00000BF00BF284600F037FB024830F8150075
:1046B00070BD0000C808002010B500F0D7FD09E06B
:1046C00006490846FCF7DAFA00F0CAFDC82800DC03
:1046D00000E000E0F4E700BF10BD000070FEFFFF47
:1046E00010B500F0C3FD09E006494842FCF7C6FAE0
:1046F00000F0B6FDC82800DC00E000E0F4E700BFF1
:1047000010BD000018FCFFFF10B500F0AFFD0AE07F
:104710004FF47A714842FCF7B1FA00F0A1FDC828C5
:1047200000DC00E000E0F3E700BF10BD10B500F0D2
:1047300015F810BD10B50122D1020248FDF786F828
:1047400010BD0000000C024010B500224FF40061C3
:104750000148FDF77BF810BD000C024010B50120A8
:1047600002490870FFF7F0FF10BD00003000002084
:1047700010B500F0A9F808B95A2010BD014800781A
:10478000FBE700000A00002070B500F0C5FB0546FD
:1047900000F0B4F8032807D025B1284600F092FBBA
:1047A000012070BD0020FCE7FFF7E2FF0646A6F1FE
:1047B0005A0455B114F1140F07DD142C05DA4FF427
:1047C00048710846FCF75AFA14E014F1140F05DAA0
:1047D0004FF42F714842FCF751FA0BE0142C04DD22
:1047E00005494842FCF74AFA04E04FF4487108468C
:1047F000FCF744FA0120D4E744FDFFFF70B5002424
:1048000000F098F824A20121002000F07BF926A2F4
:104810000121022000F076F925A24B21022000F0B0
:1048200071F925A20121042000F06CF924A20121D4
:10483000062000F067F92BE000F046F805462A460E
:104840003721022000F0ACF900F04CF805462A466A
:104850006E21022000F0A4F900F050F805462A4627
:104860003221042000F09CF9FFF782FF05462A461A
:104870003721062000F0AAF9322000F0ADF8002020
:10488000FEF7A2FC0446042C02D100F053F800E02D
:10489000D2E700BF70BD00002D43616D65726120DD
:1048A00044656275672D000066726573683D00009F
:1048B0007374673D00000000747970653D0000006E
:1048C000616E676C653D000010B5FCF7C5FF0449DB
:1048D0000968401AC82801D2012010BD0020FCE759
:1048E0000C00002010B5FFF7EFFF08B9002010BD45
:1048F00001480078FBE700000B00002010B5FFF72F
:10490000E3FF08B9002010BD01480078FBE7000074
:104910000800002010B5044604484460FEF74CFA35
:10492000012203490148FEF71FFB10BD600800206B
:104930001000002070B5002202211348FCF786FF0A
:10494000012211461048FCF781FF002414E004F115
:10495000B00000F077FE002000F074FE102000F0A0
:1049600071FE002504E0002000F0A6FE681CC5B220
:10497000802DF8DB601CC4B2082CE8DB0122022188
:104980000148FCF763FF70BD00100240002107E002
:10499000002200E0521C41F27C539A42FADB491C8F
:1049A0008142F5DB70470000084908600849096842
:1049B00041F08071064A11600021064A516011469B
:1049C000096841F0010111607047000020000020DB
:1049D000FCED00E0001000E010B504462046FCF7B6
:1049E0001FFE10BD10B504461A2C03D2094850F81A
:1049F000340008B9002010BD064A02EBC4029188B9
:104A0000044A52F83400FCF719FF012800D1F2E7FC
:104A10000020F0E74457000810B586B0142101A823
:104A2000FBF708FC00BF002000903448006840F00D
:104A30000100324908600846006800F0010000905B
:104A400000BF00BF00BF002000900846006840F093
:104A5000020008600846006800F00200009000BFF5
:104A600000BF00BF002000900846006840F004002E
:104A700008600846006800F00400009000BF00BF16
:104A800000BF002000900846006840F00800086061
:104A90000846006800F00800009000BF00BF00BF9B
:104AA000002000900846006840F0100008600846AA
:104AB000006800F01000009000BF00BF00200290CE
:104AC0000120039002200490002412E00C4850F8CA
:104AD000340000B90BE00A4800EBC4008088019064
:104AE000074951F8340001A9FCF7AEFD00BF601C76
:104AF000C4B21A2CEAD306B010BD00003038024010
:104B0000445700082DE9F04180460E461546002422
:104B10003CE0285DA12822DB285DF7281FDC601C13
:104B2000285CA1281BDB601C285CFE2817DC601CAD
:104B3000285CA138295DA139C1EB011202EB4111BA
:104B400000EB410047011448C2193146404600F0CD
:104B50005DF8A01CC4B206F11000C6B216E0285DD4
:104B6000202811DB285D7E280EDC285D20380B49CB
:104B700001EB00123146404600F07AF8601CC4B2E6
:104B800006F10800C6B201E0601CC4B2285D00282E
:104B9000BFDCBDE8F0810000145800084000002090
:104BA000F8B505460E4614460A2094FBF0F100FBCA
:104BB00011403030C0B28DF8000000208DF80100A7
:104BC0006A4631462846FFF79DFFF8BD7CB505468D
:104BD0000E461446002C05DA624208A16846FFF72B
:104BE0004BFB04E0224607A16846FFF745FB6A46F7
:104BF00031462846FFF786FF7CBD00002D25303466
:104C0000640000002B253034640000002DE9F041E1
:104C100004460E461546002202211448FCF716FEF3
:104C2000012211461148FCF711FE4FF0020812E074
:104C3000E1B2F0B200F085F9002705E0287800F035
:104C40003BFD6D1C781C87B2102FF7DB641CA8F1AC
:104C500001001FFA80F8B8F1000FE9DC01220221FF
:104C60000248FCF7F3FDBDE8F081000000100240AF
:104C70002DE9F04104460E46154600220221114856
:104C8000FCF7E4FD4FF0020812E0E1B2304600F01C
:104C900058F9002705E0287800F00EFD6D1C781CFF
:104CA00087B2082FF7DB641CA8F101001FFA80F817
:104CB000B8F1000FE9DC012202210248FCF7C6FD31
:104CC000BDE8F0810010024010B500F0CFFA0BE013
:104CD0004FF42F714842FBF7D1FF00F0C1FAB0F555
:104CE000C87F00DC00E000E0F2E700BF10BD00007C
:104CF00010B50122D1020248FCF7A8FD10BD00004A
:104D00000010024010B500224FF400610148FCF78A
:104D10009DFD10BD0010024070B52DED088B0446BE
:104D2000194830F81400194921F81400084630F8E1
:104D30001460174830F814503046FBF79FFB41ECE5
:104D40001B0B9FED140B53EC102BFBF725FB41ECD9
:104D5000190B2846FBF792FB41EC1B0B9FED0F0B49
:104D600053EC102BFBF718FB41EC1A0B53EC192BEF
:104D7000FBF76BFA41EC180BFBF78DFB024921F8AE
:104D80001400BDEC088B70BDC8080020E8080020A6
:104D9000A8080020989999999999C93F9A99999941
:104DA0009999E93F10B500F061FA08E00649084614
:104DB000FBF764FF00F054FAC82800DD00E0F5E7D7
:104DC00000BFFFF779FC10BD18FCFFFF10B50120F4
:104DD000FFF708FE012804D00220FFF703FE012898
:104DE0003BD10120FFF7FEFD01280DD10220FFF786
:104DF000F9FD48B91CA201210220FFF783FEFFF74D
:104E0000D1FFFFF76DFC1EE00120FFF7EBFD70B94D
:104E10000220FFF7E7FD012809D115A20121022098
:104E2000FFF770FEFFF7BEFFFFF76EFC0BE0FFF72A
:104E3000B9FFFFF749FF00210846FBF71FFF4FF4BA
:104E40007A70FFF7C9FD4FF4C8710846FBF716FFEB
:104E50006420FFF7C1FD012010BD4FF4C871084662
:104E6000FBF70CFF0020F7E72D2D2DD7F3B2E00064
:104E7000D3D2B2E02D2D2D00012808D110490968A8
:104E8000096841F001010E4A1268116017E0B0B9DB
:104E900000BF0B490968096A41F21112114069B952
:104EA00007490968096A9210114039B9044909682B
:104EB000096821F00101024A1268116000BF7047C1
:104EC0007C07002010B504460C2C19D2DFE804F052
:104ED0001806191A0E0F10111213070800BF00BF91
:104EE0004FF42F714842FBF7C9FE11E000BF00BF2D
:104EF00000BF00BF00BF07494842FBF7BFFE07E005
:104F000000BF00BF4FF448710846FBF7B7FE00BF73
:104F100000BF10BD44FDFFFF70B5002540F2DC5618
:104F200001240AE0E0B2FFF78DFBB04204DDE0B2FD
:104F3000FFF788FB06462546641C0B2CF2DD28464D
:104F400070BD70B504460D4605F1B00000F07AFB67
:104F5000102141EA141000F075FB04F00F0000F07E
:104F600071FB70BD10B5012211030248FCF76EFC05
:104F700010BD00000000024010B500224FF4805127
:104F80000148FCF763FC10BD00000240FCF776FC12
:104F9000FEF71CFDFEF782FAFEF764FAFEF784F9CD
:104FA000FEF756FBFEF78AFBFEF7DEFBFEF732FC50
:104FB000FEF766FCFEF780FCFEF79AFC00F0E8F9CD
:104FC000BCE05F480078012801D15EA000E05EA04F
:104FD000024601210020FFF795FD5CA20E21002072
:104FE000FFF790FD56480078022801D155A000E057
:104FF00055A0024601210220FFF784FD56A20E2192
:105000000220FFF77FFD4E480078032801D14DA014
:1050100000E04DA0024601210420FFF773FD50A2DD
:105020000E210420FFF76EFD45480078042801D1C9
:1050300044A000E044A0024601210620FFF762FDE3
:1050400049A20E210620FFF75DFDFFF73DFC28B1C8
:1050500048A264210020FFF755FD04E046A2642128
:105060000020FFF74FFD0020FEF7AEF8434908701F
:105070000846007801280DD131480078012803DD69
:105080002F480078401E00E004202D490870FFF7EB
:1050900051FC50E03948007802280DD128480078AA
:1050A000042803DA26480078401C00E00120244947
:1050B0000870FFF73FFC3EE03048007803283AD103
:1050C000FFF738FC1E480078012802D100F09CF957
:1050D0002FE01B480078022802D100F0D1F828E028
:1050E0001748007803281ED1FFF724FC24A20121D1
:1050F0000020FFF707FD25A201210220FFF702FD96
:105100000FE00020FEF760F8042800D10AE0FFF766
:10511000EFFD3220FFF760FCFFF7F4FD3220FFF7D0
:105120005BFCEEE705E006480078042801D1FFF7B4
:1051300065FBFFF7FFFB3C20FFF74EFC41E700005B
:10514000020000203E00000020000000BCECB2E2A3
:10515000C4A3CABD00000000D4CBD0D0C7F8000063
:10516000B5E7B4C5CCFA0000C9E3CFF1CDB7B5F7C8
:10517000CAD400004B3330002D2D2D00000000203C
:10518000B5E7B4C5CCFAB2E2CAD40000B0B4CDCB16
:10519000B3F6BCFCB7B5BBD800000000B1F5167F74
:1051A00001DD4FF4167111F5167F00DA294990B927
:1051B000002907DB284A126851630022264B1B682E
:1051C0009A6346E04A42244B1B689A630022224BB2
:1051D0001B685A633DE0012812D1002907DB1E4AF3
:1051E0001268D16300221C4B1B681A6431E04A42EA
:1051F000194B1B681A640022174B1B68DA6328E0FE
:10520000022812D1002907DB144A126851630022D8
:10521000124B1B689A631CE04A42104B1B689A634E
:1052200000220E4B1B685A6313E0032811D100299A
:1052300007DB0A4A1268D1630022084B1B681A6414
:1052400007E04A42054B1B681A640022034B1B68A7
:10525000DA637047A8FDFFFF7C07002034070020B9
:105260000148008870470000280000200020024903
:105270000880024908807047280000202A0000208A
:105280000024FFF757FB1DA201210020FFF73AFC85
:1052900033E0FFF79BFD30B11BA201210220FFF795
:1052A00031FC002429E0FFF70FFB88B1FFF71AFB60
:1052B00001280DD1601CC0B2044603281CDBFFF797
:1052C00039FB13A201210020FFF71CFC002413E08E
:1052D0000024FFF759FA50B90FA201210220FFF76D
:1052E00011FC4FF4C8710846FBF7C8FC04E00CA29F
:1052F00001210220FFF706FC00BFCAE7D4CBD0D0C3
:10530000D6D02E2E2E000000B7C0B5F4CCA80000D9
:10531000C9CFCCA800000000CBD1CBF7D6D000007D
:10532000D7B7B5D0D6D00000012823D0022817D097
:1053300003280BD0042827D101EB410202EB011214
:10534000C2F57B62114B1B685A631DE001EB410201
:1053500002EB0112C2F57B620C4B1B689A6313E0EF
:1053600001EB410202EB0112C2F57B62074B1B68A5
:10537000DA6309E001EB410202EB0112C2F57B6244
:10538000024B1B681A6400BF00BF70477C070020F7
:1053900010B50AA201210220FFF7B4FBFFF7C6F9FE
:1053A000FFF7EAFD4FF49670FFF716FBFFF7BEF923
:1053B000FFF7D8FDFFF7BEFA10BD00002020202027
:1053C00077656C636F6D650010B500200349088038
:1053D000034908800348FCF79BFF10BD280000200C
:1053E0002A000020EC06002010B5002003490880A8
:1053F000034908800348FCF78BFF10BD2C000020F8
:105400002E000020C407002070B500260125FFF7FC
:1054100091FADEE0012D01D16FA000E06FA00246FD
:1054200001210020FFF76EFB6DA20E210020FFF787
:1054300069FB022D01D168A000E068A002460121AD
:105440000220FFF75FFB69A20E210220FFF75AFB43
:10545000032D01D160A000E060A0024601210420DC
:10546000FFF750FB64A20E210420FFF74BFB042D35
:1054700001D159A000E059A0024601210620FFF702
:1054800041FB60A20E210620FFF73CFB0020FDF748
:105490009BFE0646012E08D1012D01DD681E00E0AD
:1054A0000420C5B2FFF746FA90E0022E08D1042D81
:1054B00001DA681C00E00120C5B2FFF73BFA85E085
:1054C000032E6ED1FFF736FA012D02D1FBF7E0F97A
:1054D00076E0022D2FD100242BE04CA201210020E8
:1054E000FFF710FB4DA201210220FFF70BFB22B2B8
:1054F0001E210420FFF76AFB21460120FFF714FF5D
:1055000021460220FFF710FF0020FDF75DFE064652
:10551000042E00D10EE0012E03D1B42C01DA641C5C
:1055200004E0022E02D1002C00DD641E5020FFF7A3
:1055300053FAD2E744E0032D3FD100243BE03AA2E6
:1055400001210020FFF7DEFA3BA201210220FFF734
:10555000D9FA22B21E210420FFF738FB214620464B
:10556000FBF78CFB0020FDF72FFE0646042E04D12E
:1055700000210846FBF782FB1EE0012E07D1B4F59F
:105580007A7F04DA32346420FFF726FA10E0022E24
:1055900008D114F57A7F05DD323C6420FFF71CFA50
:1055A00006E010E0032E03D164426420FFF714FAF2
:1055B0003220FFF711FAC2E702E0042D00D109E022
:1055C000FFF7B8F902E0042E00D103E03C20FFF71A
:1055D00003FA1FE700BF70BD3E000000200000007E
:1055E000B4ABB8D0C6F7BCECB2E20000B6E6BBFA8A
:1055F000BCECB2E200000000B5E7BBFABCECB2E2E2
:1056000000000000B7B5BBD800000000C9CF2FCF05
:10561000C2B7ADB5F750574D00000000B6E6BBFA73
:1056200050574D3A00000000C9CF2FCFC2B7ADB5DB
:10563000F7CBD9B6C8000000B5E7BBFAD7AACBD9DB
:105640003A00000070B50446002204211948FCF716
:10565000FDF8002202211748FCF7F8F800251BE0AE
:10566000002220211348FCF7F1F804F0800028B153
:10567000012210210F48FCF7E9F804E00022102174
:105680000C48FCF7E3F8012220210A48FCF7DEF879
:1056900000BF6400681CC5B2082DE1DB01220421B3
:1056A0000448FCF7D3F8012202210248FCF7CEF8A7
:1056B00070BD00000010024070B5044601220421B4
:1056C0001948FCF7C3F8002202211748FCF7BEF87E
:1056D00000251BE0002220211348FCF7B7F804F056
:1056E000800028B1012210210F48FCF7AFF804E038
:1056F000002210210C48FCF7A9F8012220210A48B9
:10570000FCF7A4F800BF6400681CC5B2082DE1DBFB
:10571000012204210448FCF799F8012202210248E1
:10572000FCF794F870BD00000010024070B504460C
:105730000D46012C03D102484560FDF73DFB70BDCD
:10574000180800200004024004000000001002407D
:105750008000000000100240000100000010024024
:1057600000020000001002400004000000000000E1
:105770000000000000100240001000000010024075
:105780000020000000100240004000000010024015
:1057900000800000000402400004000000040240F9
:1057A0000008000000040240001000000004024055
:1057B00000200000000402400040000000040240FD
:1057C00000800000000C024000010000000C0240BC
:1057D00000020000000C0240000400000000024033
:1057E000008000000008024000100000000C024091
:1057F00001000000000C024002000000000C02400A
:1058000004000000000C024008000000000C0240F0
:105810001000000000000000000000000000000078
:105820000000000000000000000000000000000078
:105830000000000000004080800000000000000028
:105840000000000000000000010300000000000054
:1058500000000000000080404080000000000000C8
:105860000000000000000102020100000000000032
:105870000000000000000000000000000000000028
:105880000000000000000000000000000000000018
:1058900000000000000000000404040404040400EC
:1058A00000000000000000000000000000000000F8
:1058B00000000000000000000204081008040200BC
:1058C00000000000000000000000000000000000D8
:1058D00000000000000000000C0C0000000C0C0098
:1058E00000000000000000000000000000000000B8
:1058F000000000000000000000C03800C0380000B8
:105900000000000000000000010000010000000095
:105910000000000000000080603C202020A07020DB
:1059200000000000000001000002041A0100000055
:1059300000000000000010101010101010101010C7
:105940001010000000000000000000000000000037
:105950000000000000402010101020202040404097
:105960002010000000000000000000000000000007
:1059700000000000000000000000FE0000FE00002B
:10598000000000000000000000007F00007F000019
:105990000000000000303000000030300000003017
:1059A00030000000000000000000000000000000C7
:1059B000000000000000000000000000000038347B
:1059C00002000000000000000000000000000000D5
:1059D00000000000000020160E0000000000000083
:1059E00000000000000000000000000000000000B7
:1059F00000000000000000000000383402003834CD
:105A00000200000000000000000000000000000094
:105A100000000000000020160E0020160E000000FE
:105A20000000000000000000000000000000000076
:105A30000000000000000000000000000000F8046A
:105A400002000000000000000000000000001F2015
:105A50004000000000000204F80000000000000008
:105A600000000000000040201F00000000000000B7
:105A7000000000000000000000000080402010082E
:105A80000402000000000000000000000102040801
:105A900010200000000002040810204080000000D8
:105AA00000000000000020100804020100000000B7
:105AB00000000000000000008040209048241209EF
:105AC0000402000000000000000102040912244842
:105AD0001020000000000204091224489020408099
